{
  "_format": "hh-sol-artifact-1",
  "contractName": "Calend3",
  "sourceName": "contracts/Calend3.sol",
  "abi": [
    {
      "inputs": [],
      "stateMutability": "nonpayable",
      "type": "constructor"
    },
    {
      "inputs": [
        {
          "internalType": "string",
          "name": "title",
          "type": "string"
        },
        {
          "internalType": "uint256",
          "name": "startTime",
          "type": "uint256"
        },
        {
          "internalType": "uint256",
          "name": "endTime",
          "type": "uint256"
        }
      ],
      "name": "createAppointments",
      "outputs": [],
      "stateMutability": "payable",
      "type": "function"
    },
    {
      "inputs": [],
      "name": "getAppointments",
      "outputs": [
        {
          "components": [
            {
              "internalType": "string",
              "name": "title",
              "type": "string"
            },
            {
              "internalType": "address",
              "name": "attendee",
              "type": "address"
            },
            {
              "internalType": "uint256",
              "name": "startTime",
              "type": "uint256"
            },
            {
              "internalType": "uint256",
              "name": "endTime",
              "type": "uint256"
            },
            {
              "internalType": "uint256",
              "name": "amountPaid",
              "type": "uint256"
            }
          ],
          "internalType": "struct Calend3.Appointment[]",
          "name": "",
          "type": "tuple[]"
        }
      ],
      "stateMutability": "view",
      "type": "function"
    },
    {
      "inputs": [],
      "name": "getRate",
      "outputs": [
        {
          "internalType": "uint256",
          "name": "",
          "type": "uint256"
        }
      ],
      "stateMutability": "view",
      "type": "function"
    },
    {
      "inputs": [],
      "name": "owner",
      "outputs": [
        {
          "internalType": "address payable",
          "name": "",
          "type": "address"
        }
      ],
      "stateMutability": "view",
      "type": "function"
    },
    {
      "inputs": [
        {
          "internalType": "uint256",
          "name": "_rate",
          "type": "uint256"
        }
      ],
      "name": "setRate",
      "outputs": [],
      "stateMutability": "nonpayable",
      "type": "function"
    }
  ],
  "bytecode": "0x608060405234801561001057600080fd5b5033600160006101000a81548173ffffffffffffffffffffffffffffffffffffffff021916908373ffffffffffffffffffffffffffffffffffffffff160217905550610e95806100616000396000f3fe60806040526004361061004a5760003560e01c806334fcf4371461004f578063679aefce146100785780638da5cb5b146100a357806396b80d08146100ce578063c24195a8146100f9575b600080fd5b34801561005b57600080fd5b50610076600480360381019061007191906106cc565b610115565b005b34801561008457600080fd5b5061008d6101af565b60405161009a9190610708565b60405180910390f35b3480156100af57600080fd5b506100b86101b8565b6040516100c59190610764565b60405180910390f35b3480156100da57600080fd5b506100e36101de565b6040516100f09190610980565b60405180910390f35b610113600480360381019061010e9190610ad7565b610343565b005b600160009054906101000a900473ffffffffffffffffffffffffffffffffffffffff1673ffffffffffffffffffffffffffffffffffffffff163373ffffffffffffffffffffffffffffffffffffffff16146101a5576040517f08c379a000000000000000000000000000000000000000000000000000000000815260040161019c90610ba3565b60405180910390fd5b8060008190555050565b60008054905090565b600160009054906101000a900473ffffffffffffffffffffffffffffffffffffffff1681565b60606002805480602002602001604051908101604052809291908181526020016000905b8282101561033a57838290600052602060002090600502016040518060a001604052908160008201805461023590610bf2565b80601f016020809104026020016040519081016040528092919081815260200182805461026190610bf2565b80156102ae5780601f10610283576101008083540402835291602001916102ae565b820191906000526020600020905b81548152906001019060200180831161029157829003601f168201915b505050505081526020016001820160009054906101000a900473ffffffffffffffffffffffffffffffffffffffff1673ffffffffffffffffffffffffffffffffffffffff1673ffffffffffffffffffffffffffffffffffffffff168152602001600282015481526020016003820154815260200160048201548152505081526020019060010190610202565b50505050905090565b61034b61059a565b8381600001819052508281604001818152505081816060018181525050600054603c84846103799190610c53565b6103839190610cb6565b61038d9190610ce7565b81608001818152505033816020019073ffffffffffffffffffffffffffffffffffffffff16908173ffffffffffffffffffffffffffffffffffffffff16815250508060800151341015610415576040517f08c379a000000000000000000000000000000000000000000000000000000000815260040161040c90610d8d565b60405180910390fd5b6000600160009054906101000a900473ffffffffffffffffffffffffffffffffffffffff1673ffffffffffffffffffffffffffffffffffffffff163460405161045d90610dde565b60006040518083038185875af1925050503d806000811461049a576040519150601f19603f3d011682016040523d82523d6000602084013e61049f565b606091505b50509050806104e3576040517f08c379a00000000000000000000000000000000000000000000000000000000081526004016104da90610e3f565b60405180910390fd5b6002829080600181540180825580915050600190039060005260206000209060050201600090919091909150600082015181600001908051906020019061052b9291906105df565b5060208201518160010160006101000a81548173ffffffffffffffffffffffffffffffffffffffff021916908373ffffffffffffffffffffffffffffffffffffffff16021790555060408201518160020155606082015181600301556080820151816004015550505050505050565b6040518060a0016040528060608152602001600073ffffffffffffffffffffffffffffffffffffffff1681526020016000815260200160008152602001600081525090565b8280546105eb90610bf2565b90600052602060002090601f01602090048101928261060d5760008555610654565b82601f1061062657805160ff1916838001178555610654565b82800160010185558215610654579182015b82811115610653578251825591602001919060010190610638565b5b5090506106619190610665565b5090565b5b8082111561067e576000816000905550600101610666565b5090565b6000604051905090565b600080fd5b600080fd5b6000819050919050565b6106a981610696565b81146106b457600080fd5b50565b6000813590506106c6816106a0565b92915050565b6000602082840312156106e2576106e161068c565b5b60006106f0848285016106b7565b91505092915050565b61070281610696565b82525050565b600060208201905061071d60008301846106f9565b92915050565b600073ffffffffffffffffffffffffffffffffffffffff82169050919050565b600061074e82610723565b9050919050565b61075e81610743565b82525050565b60006020820190506107796000830184610755565b92915050565b600081519050919050565b600082825260208201905092915050565b6000819050602082019050919050565b600081519050919050565b600082825260208201905092915050565b60005b838110156107e55780820151818401526020810190506107ca565b838111156107f4576000848401525b50505050565b6000601f19601f8301169050919050565b6000610816826107ab565b61082081856107b6565b93506108308185602086016107c7565b610839816107fa565b840191505092915050565b600061084f82610723565b9050919050565b61085f81610844565b82525050565b61086e81610696565b82525050565b600060a0830160008301518482036000860152610891828261080b565b91505060208301516108a66020860182610856565b5060408301516108b96040860182610865565b5060608301516108cc6060860182610865565b5060808301516108df6080860182610865565b508091505092915050565b60006108f68383610874565b905092915050565b6000602082019050919050565b60006109168261077f565b610920818561078a565b9350836020820285016109328561079b565b8060005b8581101561096e578484038952815161094f85826108ea565b945061095a836108fe565b925060208a01995050600181019050610936565b50829750879550505050505092915050565b6000602082019050818103600083015261099a818461090b565b905092915050565b600080fd5b600080fd5b7f4e487b7100000000000000000000000000000000000000000000000000000000600052604160045260246000fd5b6109e4826107fa565b810181811067ffffffffffffffff82111715610a0357610a026109ac565b5b80604052505050565b6000610a16610682565b9050610a2282826109db565b919050565b600067ffffffffffffffff821115610a4257610a416109ac565b5b610a4b826107fa565b9050602081019050919050565b82818337600083830152505050565b6000610a7a610a7584610a27565b610a0c565b905082815260208101848484011115610a9657610a956109a7565b5b610aa1848285610a58565b509392505050565b600082601f830112610abe57610abd6109a2565b5b8135610ace848260208601610a67565b91505092915050565b600080600060608486031215610af057610aef61068c565b5b600084013567ffffffffffffffff811115610b0e57610b0d610691565b5b610b1a86828701610aa9565b9350506020610b2b868287016106b7565b9250506040610b3c868287016106b7565b9150509250925092565b600082825260208201905092915050565b7f4f6e6c7920746865206f776e65722063616e2073657420746865207261746500600082015250565b6000610b8d601f83610b46565b9150610b9882610b57565b602082019050919050565b60006020820190508181036000830152610bbc81610b80565b9050919050565b7f4e487b7100000000000000000000000000000000000000000000000000000000600052602260045260246000fd5b60006002820490506001821680610c0a57607f821691505b60208210811415610c1e57610c1d610bc3565b5b50919050565b7f4e487b7100000000000000000000000000000000000000000000000000000000600052601160045260246000fd5b6000610c5e82610696565b9150610c6983610696565b925082821015610c7c57610c7b610c24565b5b828203905092915050565b7f4e487b7100000000000000000000000000000000000000000000000000000000600052601260045260246000fd5b6000610cc182610696565b9150610ccc83610696565b925082610cdc57610cdb610c87565b5b828204905092915050565b6000610cf282610696565b9150610cfd83610696565b9250817fffffffffffffffffffffffffffffffffffffffffffffffffffffffffffffffff0483118215151615610d3657610d35610c24565b5b828202905092915050565b7f57652072657175697265206d6f72652065746865720000000000000000000000600082015250565b6000610d77601583610b46565b9150610d8282610d41565b602082019050919050565b60006020820190508181036000830152610da681610d6a565b9050919050565b600081905092915050565b50565b6000610dc8600083610dad565b9150610dd382610db8565b600082019050919050565b6000610de982610dbb565b9150819050919050565b7f4661696c656420746f2073656e64204574686572000000000000000000000000600082015250565b6000610e29601483610b46565b9150610e3482610df3565b602082019050919050565b60006020820190508181036000830152610e5881610e1c565b905091905056fea2646970667358221220707f18bac66ed77db45938daafa8d1cdaaa725f217e92ca6625294c1853ca1a364736f6c63430008090033",
  "linkReferences": {},
  "deployedLinkReferences": {}
}